:020000040800F2
:1000000028090020CD0100086F1E0008011C00080F
:100010006D1E00082B0300087D2100080000000071
:10002000000000000000000000000000731E000837
:100030006903000800000000711E0008751E00081A
:10004000E7010008E7010008E7010008E7010008F0
:10005000E7010008E7010008E7010008E7010008E0
:10006000E7010008E7010008E70100082D03000888
:10007000E7010008E701000839030008450300080C
:10008000510300085D030008E7010008E7010008CC
:10009000E7010008E7010008E7010008E7010008A0
:1000A000E7010008F51E0008E7010008E701000865
:1000B000E7010008E7010008E7010008E701000880
:1000C000E7010008E7010008E7010008E701000870
:1000D000E70100086521000871210008E701000818
:1000E000E7010008E7010008E7010008E701000850
:1000F000E7010008E7010008E7010008E701000840
:10010000E7010008E7010008E7010008E70100082F
:10011000E7010008E7010008E7010008E70100081F
:10012000E7010008E7010008E7010008E70100080F
:1001300000F002F800F03AF80AA090E8000C8244BF
:100140008344AAF10107DA4501D100F02FF8AFF29C
:10015000090EBAE80F0013F0010F18BFFB1A43F0A5
:100160000103184788200000A8200000103A24BF8F
:1001700078C878C1FAD8520724BF30C830C144BF0C
:1001800004680C607047000000230024002500264E
:10019000103A28BF78C1FBD8520728BF30C148BFEA
:1001A0000B6070471FB51FBD10B510BD00F058F8AB
:1001B0001146FFF7F7FF01F0F2FF00F076F803B405
:1001C000FFF7F2FF03BC00F07DF80000094880470C
:1001D00009480047FEE7FEE7FEE7FEE7FEE7FEE729
:1001E000FEE7FEE7FEE7FEE704480549054A064B41
:1001F00070470000F11E00083101000828030020AC
:100200002809002028050020280500204FF00002C2
:1002100000B5134694469646203922BFA0E80C50FC
:10022000A0E80C50B1F12001BFF4F7AF090728BFD7
:10023000A0E80C5048BF0CC05DF804EB890028BF53
:1002400040F8042B08BF704748BF20F8022B11F07C
:10025000804F18BF00F8012B7047704770477047F8
:10026000754600F02BF8AE4605006946534620F06F
:100270000700854618B020B5FFF7B6FFBDE820405F
:100280004FF000064FF000074FF000084FF0000B52
:1002900021F00701AC46ACE8C009ACE8C009ACE805
:1002A000C009ACE8C0098D46704710B50446AFF3ED
:1002B00000802046BDE81040FFF781BF004870472E
:1002C000C402002001491820ABBEFEE72600020050
:1002D0007047000070B5044600688168C943C907CB
:1002E00017D1816821F00101816000F0C7FC05464B
:1002F0000AE000BF00F0C2FC401B022804D92068BD
:100300008068C043C00706D020688068C043C0072B
:10031000F0D0002070BDA06A40F01000A062E06A3A
:1003200040F00100E062012070BDFEE7014800F0EE
:1003300041BA000040000020014800F03BBA000034
:10034000B0010020014800F035BA00006C01002027
:10035000014800F02FBA0000F4010020014800F02D
:1003600029BA000038020020704772B6FEE700008C
:10037000F8B50024009490F824202546012A12D0D4
:10038000012280F824204A681F23072A0DD206681C
:10039000776B521E02EB820293409F430B6893409F
:1003A0001F43776319E00220F8BD06680D2A0AD2C0
:1003B000376BD21F02EB820293409F430B6893403E
:1003C0001F43376309E0F76A0D3A02EB820293405C
:1003D0009F430B6893401F43F7620A680723066830
:1003E0000A2A0AD3F7680A3A02EB420293409F4373
:1003F0008B6893401F43F76008E0376902EB4202C5
:1004000093409F438B6893401F4337610A68102ACB
:1004100001D0112A20D1124B02689A4217D1936859
:100420001B0219D4936843F40003936009681029F0
:1004300012D10C490C4A0968B1FBF2F101EB8101C0
:10044000490000E0491E00910029FBD104E0816AC7
:1004500041F020018162012480F824502046F8BD3B
:10046000002401400C00002040420F002DE9F04123
:1004700004004FF000057FD0A06A002628B9E6628C
:1004800084F82460204600F081F82046FFF722FF20
:10049000A16AC90600D420B1A06A40F01000A06291
:1004A0006AE0A16A21F4885141F00201A162334956
:1004B00023688B42E16904D1B1F5402F01D14FF49B
:1004C0000021277B4FF4807C41EA470261680A43A0
:1004D000A168614508D0012906D0002194F814E0F4
:1004E000BEF1010F02D00AE06146F7E7C7B1A76A83
:1004F00047F02007A762E76A47F00107E7625F68F5
:1005000027F469470F435F60236899681C4F39409F
:1005100011439960A16861450BD0012909D00CE015
:10052000DFF860E0A7690EEB47370F4347F400613F
:10053000E5E7218A0D05A5F580152168CB6A23F42E
:1005400070032B43CB62216889680F4B194091429D
:1005500008D1E662A16A21F0020141F00101A16225
:10056000BDE8F081A06A20F0020040F01000A06217
:10057000E06A40F00100E0620120F1E7003C014048
:10058000FDF7E1FF00E0FFFFFE0E1FFF70B586B034
:1005900000250646009501950295039500682149BE
:1005A00088423DD12049886940F40070886188699B
:1005B00000F400700490886940F010008861886938
:1005C00000F010000490886940F004008861886998
:1005D000032400F0040004900F20CDE900046946D4
:1005E000124800F049FAFF20CDE90004694610489E
:1005F00000F042FA104C0F48C4E900058020C4E91D
:10060000025040002061800060612020C4E906059E
:10061000204600F0F3F908B1FFF7A7FE34626662E6
:1006200006B070BD002401400010024000100140DF
:1006300000080140080002404000002010B590F87A
:1006400021100022022905D00421816380F8202096
:10065000012010BD01680B6823F00E030B600168D8
:100660000B6823F001030B6090F84030C46B01214C
:1006700001FA03F3636080F8211080F8202010460F
:1006800010BD00002DE9F05F90F821100024022930
:1006900003D004218163012485E001680A6822F007
:1006A0000E020A6001680A6822F001020A603F4EE9
:1006B0003E4FB215DFF8F4C0DFF8F090DFF8ECA0A1
:1006C000DFF8E8B0DFF8E4E00168783F13011502D5
:1006D000ACF1640CA9F15009AAF13C0AABF1280B6A
:1006E000AEF1140E4FF48018B14227D9B9420ED0A2
:1006F000614512D049451DD0514518D0594518D0F3
:10070000714501D1424615E0294EB14201D1012285
:1007100010E0274E1436B14201D110220AE0244ED7
:100720002836B14206D0224A3C32914201D11A46C3
:1007300000E02A461E49091F0A602BE0B94213D087
:10074000614517D0494522D051451DD059451DD08E
:10075000714501D142461AE0B14202D14FF0807298
:1007600015E0134EB14201D1012210E0104E1436B3
:10077000B14201D110220AE00D4E2836B14206D016
:100780000B4A3C32914201D11A4600E02A46074901
:1007900080394A60012180F82110002180F8201062
:1007A000416B01B188472046BDE8F09F80000240C0
:1007B000080402402DE9F05FC16B0A6801680B680C
:1007C000046C4FF0040808FA04F8844D844E854FF9
:1007D000DFF814C2DFF81492DFF814A2DFF814B2C5
:1007E000DFF814E218EA020F65D05FEA437862D5B9
:1007F0000A68920603D40A6822F004020A60DFF84D
:10080000F0814FF48062016808F1140813011402AA
:10081000414524D9A9420DD0B1420FD0B9421AD0D6
:10082000614515D0494515D0514501D1120312E05B
:10083000594501D104220EE0714501D140220AE060
:100840006D4D1435A94206D06B4A2832914201D130
:100850001A4600E022466749091F0A6029E0A942BA
:1008600013D0B14215D0B94220D061451BD04945C3
:100870001BD0514502D14FF4800217E0414502D10F
:100880004FF0806212E0594501D104220EE071451B
:1008900001D140220AE0584D1435A94206D0564AEB
:1008A0002832914201D11A4600E022464B490839CC
:1008B0004A60C16A71E04FF0020808FA04F818EAC9
:1008C000020F70D05FEA83786DD50A68920606D46D
:1008D0000A6822F00A020A60012180F82110DFF87C
:1008E00010814FF40072016808F11408130114021A
:1008F000414524D9A9420DD0B1420FD0B9421AD0F6
:10090000614515D0494515D0514501D1120312E07A
:10091000594501D102220EE0714501D120220AE0A1
:10092000354D1435A94206D0334A2832914201D1BF
:100930001A4600E022462F49091F0A6029E0A94211
:1009400013D0B14215D0B94220D061451BD04945E2
:100950001BD0514502D14FF4001217E0414502D19E
:100960004FF0007212E0594501D102220EE07145AC
:1009700001D120220AE0204D1435A94206D01E4A9A
:100980002832914201D11A4600E022461349083923
:100990004A60002180F82010816A00291CD0BDE83F
:1009A000F05F0847FFE70825A540154214D01A0755
:1009B00012D50A6822F00E020A6090F84020C36B3C
:1009C000012101FA02F25A60816380F821100021AE
:1009D00080F82010016BE0E7BDE8F09F08000240BE
:1009E0001C00024030000240440002405800024017
:1009F0006C000240080402401C04024030B560B1A3
:100A00001A4B026814219A4209D2194B1344B3FBC2
:100A1000F1F18900016417490AE0012030BD134B50
:100A20005B421344B3FBF1F1890001640F490839BB
:100A3000C163022180F82110136843F6F0718B43E3
:100A4000F0E901142143D0E902452C432143046914
:100A500021434469214384692143194311600021E2
:100A60004163012242770177084630BD0804024005
:100A7000F8FFFDBF000002402DE9F84FDFF8C891F4
:100A80000024A9F1040B23460F2709F1040AABF156
:100A9000040ED1E00125A54006EA0502AA4276D15E
:100AA000DFF8A8C14E68A6EB0C0866452BD00DDC1C
:100AB000032E34D005DC36B3012E19D0022E2FD1EF
:100AC0001BE0112E16D0122E2AD119E0B8F5881F7E
:100AD00019D006DCB8F5803F15D0B8F5801F1FD1BE
:100AE00011E0B8F5001F0ED0B8F5041F18D10AE0C8
:100AF000CB6815E0CB681B1D12E0CB6808330FE014
:100B0000CB680C330CE08B682BB1012B4FF0080342
:100B100003D0456104E0042302E0056100E0002306
:100B2000FF2A01D8064601E000F104064FEA8405D9
:100B300001D9A5F12005D6F8008007FA05FC28EABE
:100B40000C0803FA05F548EA0508C6F800804D6868
:100B5000ED0070D53E4DAE6946F00106AE61AD695F
:100B600024F0030605F0010500953A4D06EB050C4F
:100B7000DCF80850A607360F07FA06F825EA08053C
:100B8000DFF8D480404503D14FF0000825E052E063
:100B9000DFF8C880404502D14FF001081DE0DFF8C2
:100BA000C080404502D14FF0020816E0DFF8B48063
:100BB000404502D14FF003080FE0DFF8AC8040451C
:100BC00002D14FF0040808E0DFF8A080404502D1D0
:100BD0004FF0050801E04FF0060808FA06F848EA69
:100BE0000508CCF808804D68D9F80060ED024D4644
:100BF00001D5164300E096432E604D68DAF8006098
:100C0000AD02554601D5164300E096432E604D686F
:100C1000DBF80060AD035D4601D5164300E0964366
:100C20002E604D68DEF80060ED03754601D5164371
:100C300000E096432E60641C0A681646E2407FF48A
:100C400029AFBDE8F88F0000080401400000111032
:100C5000001002400000014000080140000C01406B
:100C6000001001400014014000180140001C014028
:100C70000AB1016170470904FBE700000148806880
:100C8000704700000000002002488168027811448B
:100C90008160704700000020074810B5016841F0EE
:100CA00010010160032000F09BF80F2000F006F80F
:100CB00000F04AF8002010BD0020024030B5054683
:100CC0001C4887B0816941F400618161806906A98F
:100CD00000F40060009001A800F0A0F900F0CEF947
:100CE0001549164AB0FBF1F11548491E02604160F2
:100CF00040F2E7320021C0E903218160816100F008
:100D000017FC040012D10E4800F040FC04000DD185
:100D1000192000F037F8102D07D20022294619209B
:100D200000F03EF80748056000E0012407B02046C7
:100D300030BD00000010024040420F00002C014076
:100D40007C020020040000200C4808B5816941F0B5
:100D500001018161816901F001010091C16941F0E6
:100D60008051C161C06900F0805000900448416822
:100D700021F0E06141F00071416008BD00100240C7
:100D800000000140002809DB00F01F020121914012
:100D90004009800000F1E020C0F800117047000019
:100DA000F0B40E4B1B680C46C3F30223C3F10705D6
:100DB000042D00D90425191D072901D2002300E0C4
:100DC000DB1E012606FA05F1491E214099409E408E
:100DD000761E16403143F0BC01F0D1B90CED00E0B5
:100DE000064900F0070208684FF6FF03184040EA82
:100DF0000220034A10430860704700000CED00E039
:100E00000000FA052DE9F84305460078354CC00787
:100E100054D0E0690026C00008D4E06940F080505A
:100E2000E061E069012600F0805000902E480168E2
:100E3000C90512D40168804641F480710160FFF752
:100E40001DFF074605E000BFFFF718FFC01B642821
:100E500023D8D8F80000C005F6D5206A10F44070F9
:100E600021D0A98801F4407181421CD0206A1F4919
:100E7000012220F440700A6000220A602062C0074C
:100E800011D0FFF7FBFE074641F2883808E000BFAB
:100E9000FFF7F4FEC11B414502D90320BDE8F883EA
:100EA000206A8007F4D5206A696820F440700843FE
:100EB00020621EB1E06920F08050E0612878800750
:100EC00005D56068A96820F4404008436060287830
:100ED000C00605D56068696920F480000843606039
:100EE0000020DBE700100240007000404004424256
:100EF0002DE9F0470F46050061D0434E306800F001
:100F00000700B84209D2306820F00700384330604B
:100F1000306800F00700B84251D128683B4C810787
:100F200012D5400703D5606840F4E060606028781F
:100F3000000703D5606840F4605060606068A9688D
:100F400020F0F000084360602878C00728D0686867
:100F5000012810D02168022810D0890700292EDA34
:100F6000616821F0030101436160FFF787FE80465D
:100F700041F288390DE021688903EFE78901EDE747
:100F8000FFF77CFEA0EB0801494502D90320BDE82C
:100F9000F0876068696800F00C00B0EB810FEFD15A
:100FA000306800F00700B8420BD9306820F0070025
:100FB00038433060306800F00700B84201D00120AB
:100FC000E5E72878400705D56068E96820F4E06027
:100FD000084360602878000706D56068296920F416
:100FE000605040EAC100606000F058F86168084A4B
:100FF000C1F30311515CC840064908600648006807
:10100000FFF75CFE0020C2E7002002400010024013
:10101000D22100080C000020040000200F220260F2
:101020000C4A536803F003034360536803F0F00372
:101030008360536803F4E063C36052684FF4E06375
:1010400003EAD20202610448006800F00700086069
:10105000704700000010024000200240044805498B
:1010600000684968044AC1F30221515CC8407047D6
:101070000C00002000100240E2210008044805494D
:1010800000684968044AC1F3C221515CC8407047F6
:101090000C00002000100240E22100080E4A5168B6
:1010A0000E4801F00C03042B11D0082B0FD10C4873
:1010B000C1F38343C903C05C0AD55168084AC1F330
:1010C0004041921E515C054A5043B0FBF1F070471D
:1010D00004494843704700000010024000127A00A3
:1010E000C221000800093D002DE9F84F040070D02E
:1010F0002078C04DC00749D06868C0F3810001283E
:1011000007D06868C0F38100022809D16868C0036D
:1011100006D52868800339D560680028E7D035E017
:101120006068B0F5803F0BD010B1B0F5A02F11D0A2
:10113000286820F480302860286820F4802002E0AD
:10114000286840F480302860606890B1FFF796FD11
:1011500006460AE0286840F480202860F0E700BFD7
:10116000FFF78CFD801B642873D828688003F7D5AF
:101170000CE0FFF783FD064605E000BFFFF77EFDAC
:10118000801B6428F0D828688003F7D420789A4E12
:1011900080074FF001094FF0000839D5686810F05A
:1011A0000C0F07D06868C0F38100022809D1686875
:1011B000C00306D42868800714D52069012808D107
:1011C00010E02069B0B1C6F80090FFF757FD074660
:1011D00005E00AE1FFF752FDC01B0228C4D82868C9
:1011E0008007F7D52868616920F0F80040EAC1005F
:1011F00028600DE0C6F80080FFF740FD074604E0D8
:10120000FFF73CFDC01B022823D828688007F7D4CD
:10121000207800072CD57948A169D9B1C0F8009091
:10122000FFF72CFD074604E0FFF728FDC01B02284E
:101230000FD8686A8007F7D571484FF4FA510068F3
:10124000B0FBF1F0009000BF0098411E0091FAD26F
:101250000EE080E0C0F80080FFF710FD074604E0D4
:10126000FFF70CFDC01B022875D8686A8007F7D409
:101270002078400760D5E8690027C00008D4E869F5
:1012800040F08050E861E869012700F0805000904C
:101290005C480168C90513D40168834641F4807134
:1012A0000160FFF7EBFC824606E000BFFFF7E6FCBB
:1012B000A0EB0A0064284ED8DBF80000C005F5D585
:1012C000E06801280AD008B1052813D0286A20F068
:1012D00001002862286A20F0040002E0286A40F039
:1012E00001002862E06841F2883B98B1FFF7C6FC34
:1012F00082460BE0286A40F004002862EEE700BF57
:10130000FFF7BCFCA0EB0A0159455AD8286A8007B0
:10131000F6D50CE0FFF7B2FC824605E0FFF7AEFC25
:10132000A0EB0A0159454CD8286A8007F6D41FB1B2
:10133000E86920F08050E861E06988B36968C1F32A
:101340008101022944D00228C6F8608004D0FFF74A
:1013500095FC044638E034E0FFF790FC074604E0D3
:10136000FFF78CFCC01B02282BD828688001F7D41B
:10137000206AB0F5803F05D16868A16820F400308C
:1013800008436860D4E908010843696821F47411CE
:1013900008436860C6F86090FFF770FC044606E0FA
:1013A00025E000BFFFF76AFC001B022809D8286867
:1013B0008001F7D51BE000BFFFF760FC001B02288F
:1013C00002D90320BDE8F88F28688001F4D40EE02C
:1013D0000128F7D06868226A00F48031914204D174
:1013E000616A00F47010884201D00120EAE7002011
:1013F000E8E7000000100240000042428004424240
:101400000C0000200070004070B5040009D0606A34
:10141000002540B125616561A56294F8510040B195
:101420000CE0012070BD6068B0F5827FF4D0E5610A
:10143000F2E784F85050204600F040F8022084F88B
:1014400051002068016821F040010160A0882189D5
:1014500000F4827001F404410843A18901F40061A1
:101460000843217C01F002010843217D01F00101C4
:101470000843218B01F400710843217F01F03801FA
:10148000084394F8201001F080010843218D01F4F5
:101490000051084321680860A069042101EA104056
:1014A000216848602068C16921F40061C1616565F7
:1014B000012084F85100002070BD000000B585B007
:1014C0000021009101910291039100681349884223
:1014D00021D11348816941F480518161816901F40E
:1014E00080510491816941F00801816180696946F8
:1014F00000F00800049028200090022001900320B2
:1015000003900848FFF7B8FA0748416841F0E061E6
:1015100041F00101416005B000BD00000030014014
:1015200000100240000C014000000140704770476D
:1015300010B5040003D094F83D0010B107E001207D
:1015400010BD002084F83C00204600F01EF8022068
:1015500084F83D00211D206800F0D2FC012084F8B1
:10156000460084F83E0084F83F0084F8400084F888
:10157000410084F8420084F8430084F8440084F871
:10158000450084F83D00002010BD704790F83D10E4
:10159000012901D001207047022180F83D10016827
:1015A000CA6842F00102CA6000680E4988420ED043
:1015B0000D4988420BD0B0F1804F08D00B498842CA
:1015C00005D00B49884202D00A49884204D181687B
:1015D00001F00701062903D0016841F00101016013
:1015E00000207047002C01400034014000040040FE
:1015F00000080040000C0040704770B504460068C9
:1016000001694FF00005C943890715D4C168C94372
:10161000890711D4E91E01610120207720688069C3
:101620008007204602D0FFF7E7FF04E000F098F8BB
:10163000204600F096F8257720680169C9434907DC
:1016400017D4C168C943490713D46FF0040101617D
:10165000022020772068806910F4407F204602D065
:10166000FFF7CAFF04E000F07BF8204600F079F8AD
:10167000257720680169C943090716D4C168C943A1
:10168000090712D46FF00801016104202077206857
:10169000C0698007204602D0FFF7AEFF04E000F0EB
:1016A0005FF8204600F05DF8257720680169C9439E
:1016B000C90617D4C168C943C90613D46FF0100115
:1016C0000161082020772068C06910F4407F20461F
:1016D00002D0FFF791FF04E000F042F8204600F04E
:1016E00040F8257720680169C943C90708D1C16856
:1016F000C943C90704D1891E0161204600F032F8B0
:1017000020680169C943090609D4C168C9430906AB
:1017100005D46FF0800101612046FFF707FF2068C4
:101720000169C943490609D4C168C943490605D4BA
:101730006FF040010161204600F01EF82068016949
:10174000C94389060BD4C168C943890607D46FF021
:10175000200101612046BDE87040FFF7E8BE70BD82
:101760007047704700680349884201D1FFF78CBA7F
:1017700070470000002C0140704770477047000020
:10178000F8B5016804460868CA684B6910F00F0F85
:101790004FF0000559D003F0010602F4907737436B
:1017A00065D0C10705D0D10503D5616C41F00101B9
:1017B0006164410705D5D90703D0616C41F002018E
:1017C0006164810705D5D90703D0616C41F004013C
:1017D0006164010707D502F02001314303D0616C39
:1017E00041F008016164616C00293AD0800604D59B
:1017F000900602D5204600F0F8FB20684069616C35
:10180000C0F38010090700D460B3204600F0C6FB87
:1018100020684069400621D52068143050E8001F38
:1018200021F0400140E80012002AF5D1E06BA8B198
:101830006D494163E06BFEF725FF002811D0E06B96
:10184000416B01B0BDE8F040084783060FD5930611
:101850000DD52046BDE8F84000F0C7BB2046FFF795
:101860008DFFF8BD2046FFF789FF6564F8BD266B44
:101870002023012E7CD1C6067AD5D60678D50868F5
:101880004868009048694FF00206400640D5E16B79
:10189000086840680004000CE8D0A28D8242E5D9B7
:1018A000E085886920282DD020680C3050E8001F82
:1018B00021F4807140E80012002AF5D1206814302C
:1018C00050E8001F21F0010140E80012002AF5D184
:1018D0002068143050E8001F21F0400140E8001259
:1018E000002AF5D184F84230256320680C3050E896
:1018F000001F21F0100140E80012002AF5D1E06B32
:10190000FEF79CFE6663A08DE18D401A81B22AE04D
:10191000A08DE18D401A81B2E08D0028A6D000296B
:10192000A4D022680C3252E8000F20F4907042E8F4
:101930000007002FF5D12068143050E8002F22F066
:10194000010240E80027002FF5D184F842302563DA
:1019500020680C3050E8002F22F0100240E80023ED
:10196000002BF5D166632046FFF707FFF8BDFFE7C0
:1019700005062BD5150629D594F841002128F5D167
:10198000A068B0F5805F01D12069B0B1206A411C28
:101990002162216800784860E08C401E0004000C41
:1019A000E084E3D12068C16821F08001C160206833
:1019B000C16841F04001C160D8E7206A0088C0F3E7
:1019C00008004860206A801C2062E5E74006CDD50B
:1019D0005006CBD5CA68204622F04002CA6084F87F
:1019E000413000F00CF9C1E78D1F000870B504000C
:1019F00004D094F84100002510B106E0012070BD2C
:101A000084F84050204600F023F8242084F8410058
:101A10002068C16821F40051C160204600F046FBF7
:101A20002068016921F4904101612068416921F039
:101A30002A0141612068C16841F40051C1606564B8
:101A4000202084F8410084F842006563002070BDC6
:101A50002DE9F04786B00025009501950295039584
:101A600004465E4E03685E480221032280274FF041
:101A7000100A4FF40059B3424ED1836943F48043B6
:101A80008361836903F480430493836943F004030F
:101A900083618069534E00F0040004900802CDE990
:101AA0000001039269463046FEF7E6FF3015CDE9A6
:101AB0000005694630460295FEF7DEFF4B4E4A4868
:101AC000C846C6E90005C6E9025735617561C6E931
:101AD00006593046FEF792FF08B1FEF746FCE66372
:101AE0007462424E404844361438C6E902573561A4
:101AF0007561C6E9000AC6E906583046FEF77EFF62
:101B000008B1FEF732FCA66300221146252074625C
:101B1000FFF746F925205BE0354EB3425AD1C36941
:101B200043F40033C361C36903F40033049383694E
:101B300043F02003836180692E4E00F02000049062
:101B40002020CDE90001039269463046FEF794FF5C
:101B50004020CDE900050120029069463046FEF79D
:101B60008BFF2548416841F0E06141F00801416088
:101B70001E4E1D4888361430C6E90005C6E90257D6
:101B800035617561C6E90659B8464F463046FEF7DD
:101B900035FF08B1FEF7E9FBE6637462134E1248A5
:101BA000CC362830C6E9025835617561C6E9000AAD
:101BB000C6E906573046FEF721FF08B1FEF7D5FB10
:101BC000A6630022114626207462FFF7E9F826205A
:101BD000FFF7D8F806B0BDE8F087000000380140F4
:101BE0000010024000080140580002406C01002033
:101BF000004400400014014000000140704770475D
:101C0000FEE700003EB500241048009401940294C1
:101C10000D498460016001250573047505614FF469
:101C200060214460C161FEF721FC08B1FEF79DFB15
:101C3000CDE90045694605480294FEF799FB002866
:101C400001D0FEF792FB3EBD0024014010000020B1
:101C5000194808B5416941F001014161406900221C
:101C600000F00100009011460B20FFF799F80B20BF
:101C7000FFF788F8002211460E20FFF791F80E209A
:101C8000FFF780F8002211460F20FFF789F80F2098
:101C9000FFF778F8002211461020FFF781F8102096
:101CA000FFF770F8002211461120FFF779F8BDE820
:101CB00008401120FFF766B8001002402DE9F04FF0
:101CC00085B00024364800940194029403948169FD
:101CD00041F010018161816901F010010491816975
:101CE00041F080018161816901F080010491816985
:101CF00041F004018161816901F00401049181696D
:101D000041F020018161816901F020010491816924
:101D100041F0080181618069DFF8889000F00800D7
:101D2000049000220F214846FEF7A2FFDFF878A0BA
:101D30004FF46057002239465046FEF799FFDFF80E
:101D40006CB04FF48078002241465846FEF790FF71
:101D50000F2001250226CDE90005CDE9024669469E
:101D60004846FEF789FE1020CDE900046946484642
:101D70000294FEF781FE0320CDE90240CDE9007513
:101D800069465046FEF778FECDF800800396CDE90F
:101D9000015469465846FEF76FFE05B0BDE8F08F66
:101DA00000100240001C01400014014000100140DE
:101DB000114810B50F4901604FF4827141604FF432
:101DC000004181600021C1604FF400720161C0E9EF
:101DD00005120822C0E90721416281620A21C1621D
:101DE000FFF712FB002803D0BDE81040FEF7BDBA94
:101DF00010BD000000300140840000200C4810B5E8
:101E00000A4901604FF4E1314160002181600C22F8
:101E1000C160C0E904128161C161FFF7E7FD0028DC
:101E200003D0BDE81040FEF7A0BA10BD0038014055
:101E3000DC0000200C4810B50A4901604FF4E13184
:101E40004160002181600C22C160C0E904128161FF
:101E5000C161FFF7CBFD002803D0BDE81040FEF7BD
:101E600084BA10BD0044004024010020FEE7FEE7D4
:101E700070477047704730B595B028216846FEF727
:101E8000C5F914210AA8FEF7C1F918210FA8FEF719
:101E9000BDF901210804CDE90010002502950224B6
:101EA0000491CDE907404FF4E01009906846FFF730
:101EB0001BF908B172B6FEE70AA90F2081E83100CC
:101EC0004FF48060CDE90D0502210AA8FFF710F854
:101ED00008B172B6FEE74FF4004011900F940FA8BE
:101EE000FEF790FF002801D072B6FEE715B030BDB6
:101EF000704700000148FFF780BB00007C02002013
:101F0000F0B502681C4B1D4D1D4E1E4F1E4C4FF070
:101F1000804C984209D0A04207D0604505D0A84225
:101F200003D0B04201D0B84204D122F0700E4A680A
:101F300042EA0E02984209D0A04207D0604505D07F
:101F4000A84203D0B04201D0B84203D122F4407578
:101F5000CA682A434D6922F080022A4302608A68D7
:101F6000C2620A688262984201D0A04201D1096926
:101F7000016301214161F0BD002C014000040040DB
:101F800000080040000C00400034014010B5406AD9
:101F90000021C185C184FFF7F1FB10BD01680C3140
:101FA00051E8002F22F4907241E80023002BF5D174
:101FB0000168143151E8002F22F0010241E80023AA
:101FC000002BF5D1016B012909D101680C3151E8D1
:101FD000002F22F0100241E80023002BF5D1202130
:101FE00080F8421000210163704708B590F8421054
:101FF000222901D0022008BD82684FF480539A4202
:1020000001D1016921B1816A9A421BD04AB10AE02B
:102010000268816A5268C2F308020A80816A891CD8
:1020200008E0026972B10268526802F07F020A7029
:10203000816A491C8162C18D491E0904090CC18550
:1020400003D01BE002685268F1E70168CA6822F019
:102050002002CA600168CA6822F48072CA600168FE
:102060004A6922F001024A61202180F842100021D1
:102070004163026B012A03D0FFF7C0FD002008BDB9
:10208000016301680C3151E8002F22F0100241E891
:102090000023002BF5D101680A68D20602D50A6830
:1020A00049680091818DFFF768FBE7E770B504464A
:1020B00000680169E26821F440511143016121691E
:1020C000A0680843616908432168CA6841F20C634B
:1020D0009A430243CA6020684169A26921F44071B1
:1020E000114341611E492068884202D1FEF7C6FFB4
:1020F00001E0FEF7B3FF00EBC00101EB00126068E6
:1021000064218000B2FBF0F3B3FBF1F36FF018062B
:102110007343B2FBF0F5B2FBF0F605EB8305322317
:1021200003EB0515B5FBF1F5B6FBF1F605F0F0058F
:1021300005EB0615B2FBF0F6B2FBF0F0B0FBF1F0E8
:102140006FF01802504306EB800003EB0010B0FB69
:10215000F1F0216800F00F002844886070BD000095
:10216000003801400148FFF70BBB0000DC000020F5
:102170000148FFF705BB000024010020FEE7090726
:10218000090E002804DB00F1E02080F800147047FD
:1021900000F00F0000F1E02080F8141D7047FEF7FA
:1021A0007BFDFFF768FEFFF789FDFFF751FDFFF7A5
:1021B00029FDFFF723FEFFF73DFEFFF7F9FDFEE7E0
:1021C000010202030405060708090A0B0C0D0E0F95
:1021D00010100000000000000000010203040607C8
:1021E0000809000000000102030400000C2200089E
:1021F00000000020100000006C0100081C220008F4
:1022000010000020180900008801000801000000EB
:0C22100010000000000000000024F4009A
:0400000508000131BD
:00000001FF
